:020000040800F2
:100000009006002089010008910100089301000872
:100010009501000897010008990100080000000000
:100020000000000000000000000000009B0100082C
:100030009D010008000000009F01000885070008DE
:10004000A3010008A3010008A3010008A301000800
:10005000A3010008A3010008A3010008A3010008F0
:10006000A3010008A3010008A3010008A3010008E0
:10007000A3010008A3010008A3010008A3010008D0
:10008000A3010008A3010008A3010008A3010008C0
:10009000A3010008A3010008A3010008A3010008B0
:1000A000A3010008A3010008A3010008A3010008A0
:1000B000A3010008A3010008A3010008A301000890
:1000C000A3010008A3010008A3010008A301000880
:1000D000A3010008A3010008A3010008A301000870
:1000E000A3010008A3010008A301000800F002F822
:1000F00000F03AF80AA090E8000C82448344AAF188
:100100000107DA4501D100F02FF8AFF2090EBAE885
:100110000F0013F0010F18BFFB1A43F0010318473B
:100120003807000058070000103A24BF78C878C18B
:10013000FAD8520724BF30C830C144BF04680C60ED
:10014000704700000023002400250026103A28BF35
:1001500078C1FBD8520728BF30C148BF0B60704739
:100160001FB51FBD10B510BD00F031F81146FFF7E7
:10017000F7FF00F043FB00F04FF803B4FFF7F2FF86
:1001800003BC00F057F800000948804709480047C1
:10019000FEE7FEE7FEE7FEE7FEE7FEE7FEE7FEE737
:1001A000FEE7FEE704480549054A064B7047000094
:1001B0009D070008ED000008900000209006002038
:1001C00090020020900200207047704770477546EB
:1001D00000F02CF8AE4605006946534620F00700B3
:1001E000854618B020B5FFF7DDFFBDE820404FF091
:1001F00000064FF000074FF000084FF0000B21F011
:100200000701AC46ACE8C009ACE8C009ACE8C009DD
:10021000ACE8C0098D46704710B50446AFF30080C6
:100220002046BDE81040FFF7A8BF00000048704717
:100230002C00002001491820ABBEFEE7260002007A
:10024000704730B5024600200023146824F00204F1
:100250001460146844F00104146000E05B1C5468EE
:1002600004F001041CB94FF6FF74A342F6D15468A0
:1002700004F001040CB900206CE08C79012C04D14D
:10028000146844F08004146003E0146824F08004CF
:100290001460CC79012C04D1146844F0400414603B
:1002A00003E0146824F0400414600C7A012C04D19B
:1002B000146844F02004146003E0146824F020045F
:1002C00014604C7A012C04D1146844F010041460BA
:1002D00003E0146824F0100414608C7A012C04D11B
:1002E000146844F00804146003E0146824F008045F
:1002F0001460CC7A012C04D1146844F00404146016
:1003000003E0146824F0040414608C78A407CD780A
:1003100044EA05640D7944EA05444D7944EA0554FC
:100320000D886D1E2C43D461146824F00104146000
:10033000002300E05B1C546804F001041CB14FF67C
:10034000FF74A342F6D1546804F001040CB10020FC
:1003500000E0012030BD10B502460020936803F094
:100360008063B3F1806F00D110E0936803F0006305
:10037000B3F1006F01D1012008E0936803F08053CE
:10038000B3F1805F01D1022000E00420042874D082
:1003900002F5C07303EB00131B6803F0010402F5C0
:1003A000C07303EB00131C600B7A7BB94B7A0C888B
:1003B00043EA445302F5C07404EB00142468234359
:1003C00002F5C07404EB0014236010E00B7A4C6853
:1003D00043EAC4034C7A234302F5C07404EB0014CF
:1003E0002468234302F5C07404EB001423608B7A65
:1003F00003F00F038B7202F5C07303EB00135B680D
:1004000023F00F0402F5C07303EB00135C6002F5E8
:10041000C07303EB00135B688C7A234302F5C0744E
:1004200004EB001463608B7B1C064B7B44EA0344A3
:100430000B7B44EA0323CC7A234302F5C07404EB1C
:100440000014A3608B7C1C064B7C44EA03440B7CA9
:1004500044EA0323CC7B234302F5C07404EB00146D
:10046000E36002F5C07303EB00131B6843F0010463
:1004700002F5C07303EB00131C6010BD0EB5012123
:10048000480600F0EBF80121052000F0F7F81B48C2
:10049000006820F47040194908600846006840F47C
:1004A000004008600846006820F470200860084694
:1004B000006840F43020086000208DF806008DF8B8
:1004C00007008DF8080001208DF8090000208DF844
:1004D0000A008DF80B008DF802008DF8030007204C
:1004E0008DF8040000208DF805000520ADF800000F
:1004F00069460348FFF7A5FE0EBD00000408014051
:1005000000640040F0B50C46059D046000260672AC
:1005100042728372002105E06F5C00F10B06775494
:100520004E1CF1B29942F7DBF0BD000001B5044961
:100530000098086000BF024800680028FBD108BD91
:100540000000002030B5144800684FF47A72B0FB08
:10055000F2F1481EB0F1807F00D31BE0481E4FF03F
:10056000E022506150170F22002804DB13071C0EF5
:100570000A4B1C5406E013071D0E094B00F00F0434
:10058000241F1D5500BF00204FF0E022906107207E
:10059000106100BF30BD00000400002000E400E056
:1005A00018ED00E00AB1016100E041617047000010
:1005B0001348806940F010001149886111480068B3
:1005C00020F070600F4908600846006840F04070F5
:1005D0000860081D006820F47040091D0860084686
:1005E000006840F4805008600748406820F47000BC
:1005F000054948600846406840F44010486070472C
:1006000000100240000C014000100140012A03D1FB
:1006100003690B43036102E043690B434361704785
:1006200070B506460C46002500BF12E001225103BA
:100630000948FFF7EBFF3046FFF778FF00224FF441
:1006400000510548FFF7E2FF3046FFF76FFF681CD7
:10065000C5B2A542EADB70BD0010014029B1064ACF
:10066000D2690243044BDA6104E0034AD26982434F
:10067000014BDA61704700000010024029B1064AC0
:1006800092690243044B9A6104E0034A92698243EF
:10069000014B9A61704700000010024010B500F055
:1006A00001F810BD0CB5002001900090334800689F
:1006B00040F480303149086000BF3048006800F4E1
:1006C000003000900198401C0190009818B90198E2
:1006D000B0F5A06FF1D12948006800F4003010B1E6
:1006E0000120009001E0002000900098012843D1F3
:1006F0002348006840F0100021490860084600685F
:1007000020F0030008600846006840F0020008601E
:100710001A484068194948600846406848600846D9
:10072000406840F4806048600846406820F47C10CF
:1007300048600846406840F4E81048600846006891
:1007400040F08070086000BF0C48006800F0007046
:100750000028F9D00948406820F0030007494860A4
:100760000846406840F00200486000BF0348406807
:1007700000F00C000828F9D10CBD00000010024068
:10078000002002400448006820B103480068401E71
:1007900001490860704700000000002010B51348B0
:1007A000006840F00100114908600846406810499F
:1007B00008400E494860084600680E4908400B4949
:1007C00008600846006820F48020086008464068F9
:1007D00020F4FE0048604FF41F008860FFF75EFFC2
:1007E0004FF000600449086010BD00000010024096
:1007F0000000FFF8FFFFF6FE08ED00E008B5FFF788
:10080000A1FEFFF7D5FEFFF739FE002501230022E8
:1008100040F223110D480095FFF774FE612414E0A7
:10082000012251030A48FFF7BDFE4FF41670FFF78F
:100830007DFE0648C47201460648FFF78CFD601C29
:10084000C4B201216420FFF7EBFEE9E718000020A5
:1008500000100140006400407808000800000020FB
:100860001800000028010008900800081800002067
:1008700078060000440100080000000000A24A04BD
:100880000000000000000000010203040607080940
:040000050800018965
:00000001FF
