:020000040800F2
:10000000A006002089010008910100089301000862
:100010009501000897010008990100080000000000
:100020000000000000000000000000009B0100082C
:100030009D010008000000009F01000869090008F8
:10004000A3010008A3010008A3010008A301000800
:10005000A3010008A3010008A3010008A3010008F0
:10006000A3010008A3010008A3010008A3010008E0
:10007000A3010008A3010008A3010008A3010008D0
:10008000A3010008A3010008A3010008A3010008C0
:10009000A3010008A3010008A3010008A3010008B0
:1000A000A3010008A3010008A3010008A3010008A0
:1000B000A3010008A3010008A3010008A301000890
:1000C000A3010008A3010008A3010008A301000880
:1000D000A3010008A3010008A3010008A301000870
:1000E000A3010008A3010008A301000800F002F822
:1000F00000F03AF80AA090E8000C82448344AAF188
:100100000107DA4501D100F02FF8AFF2090EBAE885
:100110000F0013F0010F18BFFB1A43F0010318473B
:10012000E00C0000000D0000103A24BF78C878C130
:10013000FAD8520724BF30C830C144BF04680C60ED
:10014000704700000023002400250026103A28BF35
:1001500078C1FBD8520728BF30C148BF0B60704739
:100160001FB51FBD10B510BD00F031F81146FFF7E7
:10017000F7FF00F057FD00F04FF803B4FFF7F2FF70
:1001800003BC00F057F800000948804709480047C1
:10019000FEE7FEE7FEE7FEE7FEE7FEE7FEE7FEE737
:1001A000FEE7FEE704480549054A064B7047000094
:1001B00081090008ED000008A0000020A006002032
:1001C000A0020020A00200207047704770477546CB
:1001D00000F02CF8AE4605006946534620F00700B3
:1001E000854618B020B5FFF7DDFFBDE820404FF091
:1001F00000064FF000074FF000084FF0000B21F011
:100200000701AC46ACE8C009ACE8C009ACE8C009DD
:10021000ACE8C0098D46704710B50446AFF30080C6
:100220002046BDE81040FFF7A8BF00000048704717
:100230004000002001491820ABBEFEE72600020066
:10024000704721B9C26842F02002C26003E002692F
:1002500042F020020261704710B50021837A01222A
:1002600002FA03F13D4A126842F001023B4B1A6068
:100270003A4A1C3212688A43384B1C331A60027B9C
:10028000CAB9364A0C3212688A43344B0C331A60AE
:100290004288C38842EA0343304A4032847A42F8B3
:1002A00034300288838842EA03432C4A4032847AFD
:1002B00002EBC4025360027B012A19D1274A0C3297
:1002C00012680A43254B0C331A604288038842EABD
:1002D0000343224A4032847A42F83430C288838809
:1002E00042EA03431D4A4032847A02EBC40253605F
:1002F000C27A3AB9194A121D12688A43174B1B1D5C
:100300001A6006E0154A121D12680A43134B1B1DA2
:100310001A60028932B9114A143212688A430F4BAB
:1003200014331A600289012A06D10C4A1432126869
:100330000A430A4B14331A60427B012A06D1074A4A
:100340001C3212680A43054B1C331A60034A1268B8
:1003500022F00102014B1A6010BD0000006600404F
:1003600030B5024600200023146824F00204146013
:10037000146844F00104146000E05B1C546804F04D
:1003800001041CB94FF6FF74A342F6D1546804F07F
:1003900001040CB900206CE08C79012C04D11468A4
:1003A00044F08004146003E0146824F080041460B6
:1003B000CC79012C04D1146844F04004146003E0AB
:1003C000146824F0400414600C7A012C04D11468E1
:1003D00044F02004146003E0146824F02004146046
:1003E0004C7A012C04D1146844F01004146003E02A
:1003F000146824F0100414608C7A012C04D1146861
:1004000044F00804146003E0146824F00804146045
:10041000CC7A012C04D1146844F00404146003E085
:10042000146824F0040414608C78A407CD7844EA9E
:1004300005640D7944EA05444D7944EA05540D8874
:100440006D1E2C43D461146824F001041460002351
:1004500000E05B1C546804F001041CB14FF6FF740B
:10046000A342F6D1546804F001040CB1002000E06E
:10047000012030BD10B500F5D87303EB01131B68E4
:1004800003F004031372137A53B900F5D87303EB26
:1004900001131B6840F2FF7404EA5353136009E030
:1004A00000F5D87303EB01131B686FF0604404EA96
:1004B000D303536000F5D87303EB01131B6803F0FB
:1004C0000203537200F5D87303EB01135B6803F06A
:1004D0000F03937200F5D87303EB01135B681B0ADB
:1004E000D37400F5D87303EB01139B68D37200F546
:1004F000D87303EB01139B681C0A147300F5D873BF
:1005000003EB01139B681C0C547300F5D87303EBC9
:1005100001139B681B0E937300F5D87303EB011353
:10052000DB68D37300F5D87303EB0113DB681C0A97
:10053000147400F5D87303EB0113DB681C0C5474BE
:1005400000F5D87303EB0113DB681B0E937421B91C
:10055000C36843F02003C36003E0036943F0200352
:10056000036110BD2DE9FF4704460D4616461F46A0
:10057000DDE90C898DF80A408DF80B508DF80C6080
:100580004FF6FF7000EA4710ADF800000020ADF80C
:1005900002004FF6FF7000EA4810ADF8040000209A
:1005A000ADF80600ADF8089001208DF80D00684602
:1005B000FFF752FEBDE8FF870146002211B1012975
:1005C0000BD104E006480068020AD0B27047044824
:1005D00010300068020AD0B2F8E7FF20F6E700000A
:1005E000B46500400EB50121480600F0BFF80121B6
:1005F000052000F0CBF81B48006820F47040194932
:1006000008600846006840F400400860084600683A
:1006100020F4702008600846006840F4302008602C
:1006200000208DF806008DF807008DF808000120E5
:100630008DF8090000208DF80A008DF80B008DF868
:1006400002008DF8030007208DF8040000208DF8CB
:1006500005000520ADF8000069460348FFF780FE5D
:100660000EBD0000040801400064004001B50449CB
:100670000098086000BF024800680028FBD108BD50
:100680000000002030B5144800684FF47A72B0FBC7
:10069000F2F1481EB0F1807F00D31BE0481E4FF0FE
:1006A000E022506150170F22002804DB13071C0EB4
:1006B0000A4B1C5406E013071D0E094B00F00F04F3
:1006C000241F1D5500BF00204FF0E022906107203D
:1006D000106100BF30BD00001800002000E400E001
:1006E00018ED00E00AB1016100E0416170470000CF
:1006F0000848806940F01000064988610648406853
:1007000020F47000044948600846406840F44010F6
:10071000486070470010024000100140012A03D1D8
:1007200003690B43036102E043690B434361704774
:1007300070B506460C46002500BF12E001225103A9
:100740000948FFF7EBFF3046FFF790FF00224FF418
:1007500000510548FFF7E2FF3046FFF787FF681CAE
:10076000C5B2A542EADB70BD0010014029B1064ABE
:10077000D2690243044BDA6104E0034AD26982433E
:10078000014BDA61704700000010024029B1064AAF
:1007900092690243044B9A6104E0034A92698243DE
:1007A000014B9A61704700000010024030B50021F3
:1007B0000022002400232D4D6D6805F00C0121B1AD
:1007C000042905D0082923D105E0294D056022E040
:1007D000274D05601FE0254D6D6805F47012234D0F
:1007E0006D6805F48034022505EB92421CB9214D59
:1007F000554305600BE01D4D6D6805F400351DB1D6
:100800001C4D5543056002E0194D5543056002E05B
:10081000174D056000BF00BF144D6D6805F0F00175
:100820000909154D6B5C0568DD4045600F4D6D682D
:1008300005F4E061090A104D6B5C4568DD40856098
:100840000A4D6D6805F46051C90A0B4D6B5C456833
:10085000DD40C560054D6D6805F44041890B074DCD
:100860006B5CC568B5FBF3F5056130BD0010024057
:1008700000127A0000093D0004000020140000204E
:1008800010B500F001F810BD0CB5002001900090EB
:100890003348006840F480303149086000BF304878
:1008A000006800F4003000900198401C019000980E
:1008B00018B90198B0F5A06FF1D12948006800F48B
:1008C000003010B10120009001E00020009000985D
:1008D000012843D12348006840F0100021490860F6
:1008E0000846006820F0030008600846006840F0F1
:1008F000020008601A484068194948600846406884
:1009000048600846406840F4806048600846406897
:1009100020F47C1048600846406840F4E8104860C5
:100920000846006840F08070086000BF0C4800680E
:1009300000F000700028F9D00948406820F003005A
:10094000074948600846406840F00200486000BF20
:100950000348406800F00C000828F9D10CBD0000E5
:1009600000100240002002400448006820B1034803
:100970000068401E01490860704700000000002028
:1009800010B51348006840F001001149086008469E
:100990004068104908400E494860084600680E4902
:1009A00008400B4908600846006820F48020086071
:1009B0000846406820F4FE0048604FF41F0088603D
:1009C000FFF75EFF4FF000600449086010BD0000B3
:1009D000001002400000FFF8FFFFF6FE08ED00E007
:1009E0001FB5FFF74FFE012144F20500FFF7CEFED1
:1009F0001648006820F0F0001449086008460068B6
:100A000040F0B00008600846006820F4706008609C
:100A10000846006840F43060086001210C4800F08E
:100A200085F84FF4165000900020ADF80400ADF8A2
:100A30000600ADF808000C20ADF80A000020ADF863
:100A40000C006946024800F07DF81FBD0408014013
:100A5000003801402DE9FC41064600270024002013
:100A600000900190002536E035460F20B840054043
:100A70003D41092D05DC05F13000C0B20DF8040040
:100A800025E0A5F10A0006281CD2DFE800F00307E4
:100A90000B0F131741200DF8040017E042200DF84A
:100AA000040013E043200DF804000FE044200DF88B
:100AB00004000BE045200DF8040007E046200DF887
:100AC000040003E021200DF8040000BF00BF381D22
:100AD000C7B2601CC4B246FA07F00028C4D10AE0CD
:100AE000601E1DF80010064800F098F80120FFF77E
:100AF000BDFD601EC4B2002CF2DCBDE8FC8100002C
:100B00000038014070B50446002508E0615D0648E4
:100B100000F084F80120FFF7A9FD681CC5B2605DF4
:100B20000028F3D170BD00000038014021B1828956
:100B300042F40052828104E082894DF6FF731A402C
:100B4000828170472DE9F04786B005460E460024A5
:100B5000A24600BFA1460027B08900B100BF2F46C2
:100B60002C8A4CF6FF700440F08804432C82AC8938
:100B70004EF6F3100440B088318908437189084368
:100B80000443AC81AC8A4FF6FF400440B089044373
:100B9000AC8201A8FFF70AFE1F48874202D1DDF8A8
:100BA00010A001E0DDF80CA0A88900F4004040B1DD
:100BB0000AEBCA0000EB0A1031684900B0FBF1F8FB
:100BC00007E00AEBCA0000EB0A1031688900B0FBAD
:100BD000F1F86420B8FBF0F004012009642101FB66
:100BE0001089A88900F4004040B1322000EBC90010
:100BF000B0FBF1F000F00700044308E0322000EB06
:100C000009106421B0FBF1F000F00F0004432C81C7
:100C100006B0BDE8F087000000380140C1F30802CB
:100C2000828070471CB5FFF72DFDFFF761FDFFF7D0
:100C3000D9FCFFF7D5FE002040F2231140F2031348
:100C40000246CDE900100121FFF78CFC0024A9E049
:100C500000224FF400515448FFF744FD40F2262093
:100C6000FFF704FD0020514908600A460021504862
:100C7000FFF700FC00214E48FFF7E3FA4B480068FD
:100C800040F2231188427DD101214FF47A70FFF7A1
:100C90004FFD48A0FFF736FF0120FFF7E7FC47A014
:100CA000FFF730FF0120FFF7E1FC0020FFF784FC95
:100CB000044604F130014548FFF7B0FF0120FFF77B
:100CC000D5FC2C214148FFF7A9FF0120FFF7CEFCFE
:100CD0003FA0FFF717FF0120FFF7C8FC3348C47A95
:100CE00021463A48FFF79AFF0120FFF7BFFC2C216D
:100CF0003648FFF793FF0120FFF7B8FC36A0FFF757
:100D000001FF0120FFF7B2FC2848046835A0FFF777
:100D1000F9FEA0B2FFF79EFE0120FFF7A7FC2C21F1
:100D20002A48FFF77BFF0120FFF7A0FC2EA0FFF76A
:100D3000E9FE0120FFF79AFC1C48847A04F1300197
:100D40002248FFF76BFF0120FFF790FC2C211F4882
:100D5000FFF764FF0120FFF789FC25A0FFF7D2FE13
:100D60000120FFF783FC1148447A04F13001174851
:100D7000FFF754FF0120FFF779FC0A211348FFF722
:100D80004DFF00E007E00D211048FFF747FF01206D
:100D9000FFF76CFC06E018A0FFF7B4FE0121642009
:100DA000FFF7C6FC54E70000001001402C000020B3
:100DB000006400402D2D2D2D2D0A000046696C7415
:100DC00065725F696E6465783A2000000038014002
:100DD00020446174613A2000207374645F69643A4E
:100DE000200000003078000020444C433A200000EE
:100DF000205254523A2D2000204E6F6E6520000084
:100E0000200E0008000000202C000000280100082F
:100E10004C0E00082C00002074060000440100085D
:100E200000000000000000000102030401020304AE
:100E3000060708090204060800A24A040000000090
:0C0E40000000000001020304060708097E
:040000050800018965
:00000001FF
