:020000040800F2
:100000009006002089010008910100089301000872
:100010009501000897010008990100080000000000
:100020000000000000000000000000009B0100082C
:100030009D010008000000009F0100085D07000806
:10004000A3010008A3010008A3010008A301000800
:10005000A3010008A3010008A3010008A3010008F0
:10006000A3010008A3010008A3010008A3010008E0
:10007000A3010008A3010008A3010008A3010008D0
:10008000A3010008A3010008A3010008A3010008C0
:10009000A3010008A3010008A3010008A3010008B0
:1000A000A3010008A3010008A3010008A3010008A0
:1000B000A3010008A3010008A3010008A301000890
:1000C000A3010008A3010008A3010008A301000880
:1000D000A3010008A3010008A3010008A301000870
:1000E000A3010008A3010008A301000800F002F822
:1000F00000F03AF80AA090E8000C82448344AAF188
:100100000107DA4501D100F02FF8AFF2090EBAE885
:100110000F0013F0010F18BFFB1A43F0010318473B
:100120001807000038070000103A24BF78C878C1CB
:10013000FAD8520724BF30C830C144BF04680C60ED
:10014000704700000023002400250026103A28BF35
:1001500078C1FBD8520728BF30C148BF0B60704739
:100160001FB51FBD10B510BD00F031F81146FFF7E7
:10017000F7FF00F02FFB00F04FF803B4FFF7F2FF9A
:1001800003BC00F057F800000948804709480047C1
:10019000FEE7FEE7FEE7FEE7FEE7FEE7FEE7FEE737
:1001A000FEE7FEE704480549054A064B7047000094
:1001B00075070008ED000008900000209006002060
:1001C00090020020900200207047704770477546EB
:1001D00000F02CF8AE4605006946534620F00700B3
:1001E000854618B020B5FFF7DDFFBDE820404FF091
:1001F00000064FF000074FF000084FF0000B21F011
:100200000701AC46ACE8C009ACE8C009ACE8C009DD
:10021000ACE8C0098D46704710B50446AFF30080C6
:100220002046BDE81040FFF7A8BF00000048704717
:100230002C00002001491820ABBEFEE7260002007A
:10024000704730B5024600200023146824F00204F1
:100250001460146844F00104146000E05B1C5468EE
:1002600004F001041CB94FF6FF74A342F6D15468A0
:1002700004F001040CB900206CE08C79012C04D14D
:10028000146844F08004146003E0146824F08004CF
:100290001460CC79012C04D1146844F0400414603B
:1002A00003E0146824F0400414600C7A012C04D19B
:1002B000146844F02004146003E0146824F020045F
:1002C00014604C7A012C04D1146844F010041460BA
:1002D00003E0146824F0100414608C7A012C04D11B
:1002E000146844F00804146003E0146824F008045F
:1002F0001460CC7A012C04D1146844F00404146016
:1003000003E0146824F0040414608C78A407CD780A
:1003100044EA05640D7944EA05444D7944EA0554FC
:100320000D886D1E2C43D461146824F00104146000
:10033000002300E05B1C546804F001041CB14FF67C
:10034000FF74A342F6D1546804F001040CB10020FC
:1003500000E0012030BD10B502460020936803F094
:100360008063B3F1806F00D110E0936803F0006305
:10037000B3F1006F01D1012008E0936803F08053CE
:10038000B3F1805F01D1022000E00420042874D082
:1003900002F5C07303EB00131B6803F0010402F5C0
:1003A000C07303EB00131C600B7A7BB94B7A0C888B
:1003B00043EA445302F5C07404EB00142468234359
:1003C00002F5C07404EB0014236010E00B7A4C6853
:1003D00043EAC4034C7A234302F5C07404EB0014CF
:1003E0002468234302F5C07404EB001423608B7A65
:1003F00003F00F038B7202F5C07303EB00135B680D
:1004000023F00F0402F5C07303EB00135C6002F5E8
:10041000C07303EB00135B688C7A234302F5C0744E
:1004200004EB001463608B7B1C064B7B44EA0344A3
:100430000B7B44EA0323CC7A234302F5C07404EB1C
:100440000014A3608B7C1C064B7C44EA03440B7CA9
:1004500044EA0323CC7B234302F5C07404EB00146D
:10046000E36002F5C07303EB00131B6843F0010463
:1004700002F5C07303EB00131C6010BD0EB52048DD
:10048000C06940F000701E49C8610846806940F0AC
:10049000050088611B48006820F470401949086015
:1004A0000846006840F4004008600846006820F4F0
:1004B000702008600846006840F430200860002082
:1004C0008DF806008DF807008DF8080001208DF8E2
:1004D000090000208DF80A008DF80B008DF802004D
:1004E0008DF8030007208DF8040000208DF805002A
:1004F0000520ADF8000069460348FFF7A2FE0EBDD7
:10050000001002400408014000640040F0B50C46B1
:10051000059D04600026067242728372002105E088
:100520006F5C00F10B0677544E1CF1B29942F7DB79
:10053000F0BD000001B504490098086000BF024802
:1005400000680028FBD108BD0000002030B5144829
:1005500000684FF47A72B0FBF2F1481EB0F1807F70
:1005600000D31BE0481E4FF0E022506150170F22CD
:10057000002804DB13071C0E0A4B1C5406E013076B
:100580001D0E094B00F00F04241F1D5500BF002055
:100590004FF0E02290610720106100BF30BD0000E5
:1005A0000400002000E400E018ED00E00AB1016161
:1005B00000E04161704700001648806940F0080083
:1005C000144988610846806940F01000886112482B
:1005D000006820F07060104908600846006840F02C
:1005E00040700860081D006820F47040091D086014
:1005F0000846006840F4805008600848406820F4CD
:100600007000064948600846406840F44010486061
:100610007047000000100240000C01400010014033
:10062000012A03D103690B43036102E043690B43D1
:10063000436170472DE9F04180460C4615461E4641
:10064000002700BF11E0012231462846FFF7E8FFEE
:100650004046FFF76FFF002231462846FFF7E0FFD4
:100660004046FFF767FF781CC7B2A742EBDBBDE847
:10067000F08110B500F002F810BD00000CB50020AC
:10068000019000903348006840F4803031490860A0
:1006900000BF3048006800F4003000900198401C12
:1006A0000190009818B90198B0F5A06FF1D12948D0
:1006B000006800F4003010B10120009001E000203B
:1006C00000900098012843D12348006840F01000B2
:1006D000214908600846006820F0030008600846C9
:1006E000006840F0020008601A48406819494860F4
:1006F0000846406848600846406840F480604860AA
:100700000846406820F47C1048600846406840F481
:10071000E81048600846006840F08070086000BF3C
:100720000C48006800F000700028F9D009484068C3
:1007300020F00300074948600846406840F0020086
:10074000486000BF0348406800F00C000828F9D159
:100750000CBD000000100240002002400448006868
:1007600020B103480068401E01490860704700003E
:100770000000002010B51348006840F00100114946
:10078000086008464068104908400E49486008461D
:1007900000680E4908400B4908600846006820F4CC
:1007A000802008600846406820F4FE0048604FF44E
:1007B0001F008860FFF75DFF4FF00060044908608C
:1007C00010BD0000001002400000FFF8FFFFF6FE21
:1007D00008ED00E008B5FFF7B9FEFFF7EDFEFFF703
:1007E0004DFE00250123002240F223110F48009501
:1007F000FFF78CFE612417E0012251030C48FFF73C
:10080000D5FE4FF41670FFF795FE0848C4720146F6
:100810000848FFF7A0FD601CC4B24FF40053044A1F
:1008200001216420FFF706FFE6E700001800002022
:10083000001001400064004058080008000000203B
:1008400018000000280100087008000818000020A7
:1008500078060000440100080000000000A24A04DD
:100860000000000000000000010203040607080960
:040000050800018965
:00000001FF
