:020000040800F2
:100000009006002089010008910100089301000872
:100010009501000897010008990100080000000000
:100020000000000000000000000000009B0100082C
:100030009D010008000000009F01000871080008F1
:10004000A3010008A3010008A3010008A301000800
:10005000A3010008A3010008A3010008A3010008F0
:10006000A3010008A3010008A3010008A3010008E0
:10007000A3010008A3010008A3010008A3010008D0
:10008000A3010008A3010008A3010008A3010008C0
:10009000A3010008A3010008A3010008A3010008B0
:1000A000A3010008A3010008A3010008A3010008A0
:1000B000A3010008A3010008A3010008A301000890
:1000C000A3010008A3010008A3010008A301000880
:1000D000A3010008A3010008A3010008A301000870
:1000E000A3010008A3010008A301000800F002F822
:1000F00000F03AF80AA090E8000C82448344AAF188
:100100000107DA4501D100F02FF8AFF2090EBAE885
:100110000F0013F0010F18BFFB1A43F0010318473B
:100120005008000070080000103A24BF78C878C159
:10013000FAD8520724BF30C830C144BF04680C60ED
:10014000704700000023002400250026103A28BF35
:1001500078C1FBD8520728BF30C148BF0B60704739
:100160001FB51FBD10B510BD00F031F81146FFF7E7
:10017000F7FF00F0B9FB00F04FF803B4FFF7F2FF10
:1001800003BC00F057F800000948804709480047C1
:10019000FEE7FEE7FEE7FEE7FEE7FEE7FEE7FEE737
:1001A000FEE7FEE704480549054A064B7047000094
:1001B00089080008ED00000890000020900600204B
:1001C00090020020900200207047704770477546EB
:1001D00000F02CF8AE4605006946534620F00700B3
:1001E000854618B020B5FFF7DDFFBDE820404FF091
:1001F00000064FF000074FF000084FF0000B21F011
:100200000701AC46ACE8C009ACE8C009ACE8C009DD
:10021000ACE8C0098D46704710B50446AFF30080C6
:100220002046BDE81040FFF7A8BF00000048704717
:100230002C00002001491820ABBEFEE7260002007A
:10024000704721B9C26842F02002C26003E002692F
:1002500042F020020261704710B50021837A01222A
:1002600002FA03F13D4A126842F001023B4B1A6068
:100270003A4A1C3212688A43384B1C331A60027B9C
:10028000CAB9364A0C3212688A43344B0C331A60AE
:100290004288C38842EA0343304A4032847A42F8B3
:1002A00034300288838842EA03432C4A4032847AFD
:1002B00002EBC4025360027B012A19D1274A0C3297
:1002C00012680A43254B0C331A604288038842EABD
:1002D0000343224A4032847A42F83430C288838809
:1002E00042EA03431D4A4032847A02EBC40253605F
:1002F000C27A3AB9194A121D12688A43174B1B1D5C
:100300001A6006E0154A121D12680A43134B1B1DA2
:100310001A60028932B9114A143212688A430F4BAB
:1003200014331A600289012A06D10C4A1432126869
:100330000A430A4B14331A60427B012A06D1074A4A
:100340001C3212680A43054B1C331A60034A1268B8
:1003500022F00102014B1A6010BD0000006600404F
:1003600030B5024600200023146824F00204146013
:10037000146844F00104146000E05B1C546804F04D
:1003800001041CB94FF6FF74A342F6D1546804F07F
:1003900001040CB900206CE08C79012C04D11468A4
:1003A00044F08004146003E0146824F080041460B6
:1003B000CC79012C04D1146844F04004146003E0AB
:1003C000146824F0400414600C7A012C04D11468E1
:1003D00044F02004146003E0146824F02004146046
:1003E0004C7A012C04D1146844F01004146003E02A
:1003F000146824F0100414608C7A012C04D1146861
:1004000044F00804146003E0146824F00804146045
:10041000CC7A012C04D1146844F00404146003E085
:10042000146824F0040414608C78A407CD7844EA9E
:1004300005640D7944EA05444D7944EA05540D8874
:100440006D1E2C43D461146824F001041460002351
:1004500000E05B1C546804F001041CB14FF6FF740B
:10046000A342F6D1546804F001040CB1002000E06E
:10047000012030BD10B500F5D87303EB01131B68E4
:1004800003F004031372137A53B900F5D87303EB26
:1004900001131B6840F2FF7404EA5353136009E030
:1004A00000F5D87303EB01131B686FF0604404EA96
:1004B000D303536000F5D87303EB01131B6803F0FB
:1004C0000203537200F5D87303EB01135B6803F06A
:1004D0000F03937200F5D87303EB01135B681B0ADB
:1004E000D37400F5D87303EB01139B68D37200F546
:1004F000D87303EB01139B681C0A147300F5D873BF
:1005000003EB01139B681C0C547300F5D87303EBC9
:1005100001139B681B0E937300F5D87303EB011353
:10052000DB68D37300F5D87303EB0113DB681C0A97
:10053000147400F5D87303EB0113DB681C0C5474BE
:1005400000F5D87303EB0113DB681B0E937421B91C
:10055000C36843F02003C36003E0036943F0200352
:10056000036110BD2DE9FF4704460D4616461F46A0
:10057000DDE90C898DF80A408DF80B508DF80C6080
:100580004FF6FF7000EA4710ADF800000020ADF80C
:1005900002004FF6FF7000EA4810ADF8040000209A
:1005A000ADF80600ADF8089001208DF80D00684602
:1005B000FFF752FEBDE8FF870EB52048C06940F046
:1005C00000701E49C8610846806940F005008861D6
:1005D0001B48006820F4704019490860084600680C
:1005E00040F4004008600846006820F4702008606D
:1005F0000846006840F43020086000208DF80600AE
:100600008DF807008DF8080001208DF80900002002
:100610008DF80A008DF80B008DF802008DF80300AC
:1006200007208DF8040000208DF805000520ADF8A6
:10063000000069460348FFF793FE0EBD001002401C
:10064000040801400064004001B5044900980860B6
:1006500000BF024800680028FBD108BD0000002050
:1006600030B5144800684FF47A72B0FBF2F1481EBE
:10067000B0F1807F00D31BE0481E4FF0E0225061B4
:1006800050170F22002804DB13071C0E0A4B1C54C2
:1006900006E013071D0E094B00F00F04241F1D5523
:1006A00000BF00204FF0E02290610720106100BFE2
:1006B00030BD00000400002000E400E018ED00E080
:1006C0000AB1016100E0416170470000164880698D
:1006D00040F00800144988610846806940F0100025
:1006E00088611248006820F0706010490860084670
:1006F000006840F040700860081D006820F47040F9
:10070000091D08600846006840F4805008600848E9
:10071000406820F47000064948600846406840F48C
:10072000401048607047000000100240000C01407B
:1007300000100140012A03D103690B43036102E069
:1007400043690B43436170472DE9F04180460C46F5
:1007500015461E46002700BF11E0012231462846FB
:10076000FFF7E8FF4046FFF76FFF002231462846BB
:10077000FFF7E0FF4046FFF767FF781CC7B2A742CC
:10078000EBDBBDE8F08110B500F002F810BD000011
:100790000CB50020019000903348006840F4803090
:1007A0003149086000BF3048006800F40030009014
:1007B0000198401C0190009818B90198B0F5A06FFD
:1007C000F1D12948006800F4003010B101200090F8
:1007D00001E0002000900098012843D123480068E0
:1007E00040F01000214908600846006820F003002E
:1007F00008600846006840F0020008601A48406837
:10080000194948600846406848600846406840F416
:10081000806048600846406820F47C1048600846C4
:10082000406840F4E81048600846006840F0807076
:10083000086000BF0C48006800F000700028F9D084
:100840000948406820F003000749486008464068AE
:1008500040F00200486000BF0348406800F00C0010
:100860000828F9D10CBD0000001002400020024011
:100870000448006820B103480068401E0149086030
:10088000704700000000002010B51348006840F0D9
:1008900001001149086008464068104908400E49A7
:1008A0004860084600680E4908400B490860084641
:1008B000006820F4802008600846406820F4FE00AC
:1008C00048604FF41F008860FFF75DFF4FF0006045
:1008D0000449086010BD0000001002400000FFF84D
:1008E000FFFFF6FE08ED00E01CB5FFF7B9FEFFF7CD
:1008F000EDFEFFF761FE002040F2231140F20313EA
:100900000246CDE900100121FFF72CFE28E000226D
:100910004FF400511348FFF7D3FE40F22620FFF7B3
:1009200093FE114A00211148FFF7A4FD00210F4852
:10093000FFF787FC0C48006840F22311884208D179
:100940004FF40053074A01214FF47A70FFF7FCFE81
:1009500006E04FF40053034A01216420FFF7F4FE40
:10096000D5E700000010014018000020006400409E
:10097000900900080000002018000000280100086D
:10098000A8090008180000207806000044010008AB
:100990000000000000A24A04000000000000000067
:0809A000010203040607080927
:040000050800018965
:00000001FF
